:020000040800F2
:1000000028080020290200084F1B000827170008B5
:100010004D1B00080B050008811D000800000000B2
:10002000000000000000000000000000531B00085A
:100030000D05000800000000511B0008551B0008BA
:10004000430200084302000843020008430200087C
:10005000430200084302000843020008430200086C
:10006000430200084302000843020008430200085C
:10007000430200084302000843020008430200084C
:10008000430200084302000843020008430200083C
:10009000430200084302000843020008430200082C
:1000A000430200084302000843020008430200081C
:1000B000430200084302000843020008430200080C
:1000C00043020008430200084302000843020008FC
:1000D00043020008430200084302000843020008EC
:1000E00043020008430200084302000843020008DC
:1000F00043020008430200084302000843020008CC
:1001000043020008430200084302000843020008BB
:1001100043020008430200084302000843020008AB
:10012000430200084302000843020008430200089B
:10013000430200084302000843020008430200088B
:10014000430200084302000843020008430200087B
:10015000430200084302000843020008430200086B
:10016000430200084302000843020008430200085B
:100170004302000843020008430200080000000098
:10018000430200084302000800F002F800F03CF8C7
:100190000AA090E8000C82448344AAF10107DA45E2
:1001A00001D100F031F8AFF2090EBAE80F0013F0F8
:1001B000010F18BFFB1A43F001031847C0300000BD
:1001C000E0300000103A24BF78C878C1FAD852074E
:1001D00024BF30C830C144BF04680C6070470000C1
:1001E0000023002400250026103A28BF78C1FBD840
:1001F000520728BF30C148BF0B6070471FB503F0DE
:100200002BF81FBD10B510BD00F046F91146FFF7E1
:10021000F5FF02F073FA00F064F903B4FFF7F2FFA0
:1002200003BC00F06BF9000009488047094800470B
:10023000FEE7FEE7FEE7FEE7FEE7FEE7FEE7FEE796
:10024000FEE7FEE704480549054A064B70470000F3
:10025000ED1B000889010008280200202808002062
:10026000280400202804002053EA020C00F06980D2
:100270002DE9F04B4FF00006002B1FBFB3FA83F5BA
:1002800003FA05F424FA05F65E4012BF1643B2FAEB
:1002900082F502FA05F4C5F120051EBF22FA05FC1D
:1002A00044EA0C04203556EA044C4FEA144418BFC3
:1002B000641C4FF000084FF00009904271EB030CF2
:1002C00039D3002919BFB1FA81F701FA07F6B0FA5C
:1002D00080F700FA07F6C7F120071EBF20FA07FCD7
:1002E00046EA0C062037B6FBF4FCA7EB0507103FE7
:1002F00007F01F0BCBF120060CFA0BFB2CFA06F6CD
:1003000044BFB3460026202FA4BF5E464FF0000B2B
:100310005BEA060C08BF4FF0010B19EB0B09ABFBB6
:10032000027C48EB0608C01B06FB02CC0BFB03CC8F
:1003300071EB0C01C1E70B46024641464846BDE859
:10034000F08B13B54FF000004FF00001AFF30080C9
:10035000BDE81C407047032A40F2308010F0030CC7
:1003600000F0158011F8013BBCF1020F624498BF08
:1003700011F801CB00F8013B38BF11F8013BA2F1A5
:10038000040298BF00F801CB38BF00F8013B11F020
:10039000030300F04F80083AC0F0088051F8043B96
:1003A000083A51F804CBA0E80810F5E7121D5CBF2D
:1003B00051F8043B40F8043BAFF30080D20724BF60
:1003C00011F8013B11F801CB48BF11F8012B24BFF4
:1003D00000F8013B00F801CB48BF00F8012B704743
:1003E0004FF0000200B5134694469646203922BFCE
:1003F000A0E80C50A0E80C50B1F12001BFF4F7AF19
:10040000090728BFA0E80C5048BF0CC05DF804EBFA
:10041000890028BF40F8042B08BF704748BF20F868
:10042000022B11F0804F18BF00F8012B7047704766
:100430007047704710B5203AC0F00B80B1E81850F3
:10044000203AA0E81850B1E81850A0E81850BFF4BE
:10045000F5AF5FEA027C24BFB1E81850A0E818505D
:1004600044BF18C918C0BDE810405FEA827C24BFB1
:1004700051F8043B40F8043B08BF7047D20728BF3F
:1004800031F8023B48BF11F8012B28BF20F8023B8E
:1004900048BF00F8012B7047754600F02BF8AE46B8
:1004A00005006946534620F00700854618B020B580
:1004B000FFF7C8FEBDE820404FF000064FF00007F0
:1004C0004FF000084FF0000B21F00701AC46ACE8FC
:1004D000C009ACE8C009ACE8C009ACE8C0098D4669
:1004E000704710B50446AFF300802046BDE81040C9
:1004F000FFF793BE00487047C4010020014918204F
:10050000ABBEFEE7260002007047FEE77047000022
:1005100070B5044600F014F90546601C02D004488A
:100520000078044400F00CF9401BA042FAD370BDDF
:100530001C0000202DE9F84FDFF8BCA100220125A6
:1005400003264FF00F090AF1040BAAF1040E00BFB5
:100550000B6805FA02F42340A34270D10F7907F02B
:100560000307012F01D0022F16D187684FEA4208F6
:1005700006FA08FC27EA0C07D1F80CC00CFA08FCB4
:100580004CEA070CC0F808C04768A7430C79C4F3CD
:10059000001494403C4344600C79E443A4070AD01F
:1005A000C4684FEA420C06FA0CF7BC438F6807FA9E
:1005B0000CF72743C7600C7904F00304022C12D116
:1005C000D40800EB840CDCF820405707FF0E09FA32
:1005D00007F824EA0804D1F8108008FA07F848EA76
:1005E0000408CCF8208004684FEA420C06FA0CF7A5
:1005F000BC430F7907F0030707FA0CF7274307609E
:100600004C6814F4403F70D03C4C276847F4804756
:100610002760246822F0030704F480440094384CD7
:1006200007EB040CDCF8084897074FEA177809FA3B
:1006300008F7BC43334FB84202D1002724E054E00E
:10064000314FB84201D101271EE0304FB84201D1ED
:10065000022719E02E4FB84201D1032714E02D4F95
:10066000B84201D104270FE02B4FB84201D1052732
:100670000AE02A4FB84201D1062705E0284FB842C8
:1006800001D1072700E0082707FA08F72743CCF82D
:100690000878DAF800405746D1F804C09C435FEA76
:1006A000CC2C00D51C433C60DBF800405F46D1F801
:1006B00004C09C435FEA8C2C00D51C433C60DEF8F0
:1006C00000407746D1F804C09C435FEA8C3C00D5DB
:1006D0001C433C60084F083F3C68D1F804C09C4371
:1006E0005FEACC3C00D51C433C60521C102AFFF44E
:1006F0002FAFBDE8F88F0000083C014044380240AD
:1007000000300140000002400004024000080240A6
:10071000000C024000100240001402400018024089
:10072000001C0240426921EA02030A4043EA0241F6
:10073000816170470AB1816170470904FBE70000DD
:1007400001488068704700001C00002090F83C10B1
:10075000012912D0012100F83C1F2421417050F8DA
:100760003C1CCA6822F00C0242F00402CA6020213C
:10077000417000210170084670470220704790F8D0
:100780003C10012912D0012100F83C1F24214170A6
:1007900050F83C1CCA6822F00C0242F00802CA6001
:1007A00020214170002101700846704702207047E7
:1007B00070B5040004D094F83D00002510B106E0A7
:1007C000012070BD84F83C50204600F0BFFE24207C
:1007D00084F83D002068C16821F40051C1602046C2
:1007E00001F00CFA2068016921F490410161206850
:1007F000416921F0220141612068416941F008010D
:1008000041612068C16841F40051C1602564202025
:1008100084F83D0084F83E00002070BD70B50400EF
:1008200025D094F83D00002520B984F83C5020469E
:1008300000F0F4FA242084F83D002068016821F0DB
:10084000010101602068016841F4004101602068F5
:10085000016821F40041016000F05CFC4D4A6168D0
:10086000914201D84C4900E04C49884201D2012014
:1008700070BD4B492368B0FBF1F15E6826F03F067E
:100880000E435E606368934206D94FF496735943F2
:100890004FF47A73B1FBF3F12368491C1E6A26F00A
:1008A0003F06314319626168914210D84900401EE9
:1008B000B0FBF1F2521CC2F30B02042A01D2042055
:1008C00022E0B0FBF1F0401CC0F30B001CE0A2687A
:1008D000F2B301EBC10303EB0116431EB3FBF6F3C6
:1008E0005B1C43F480431B0549D092B301EBC1026A
:1008F00002EB0111401EB0FBF1F0401CC0F30B00F5
:1009000040F4804040F400402168CA694CF6FF730F
:100910009A431043C861D4E9071001432068026874
:1009200022F0C00211430160D4E9030101432068B1
:10093000826848F2FF339A4311438160D4E905018C
:1009400008432168CA6822F0FF021043C86001E032
:100950000EE016E02068016841F0010101602564A5
:10096000202084F83D00256384F83E50002070BDAF
:1009700001EB4106431EB3FBF6F35B1CB3E701201A
:10098000C2E701EB4101401EB0FBF1F0401CC0F397
:100990000B00B7E7A086010080841E0000093D001F
:1009A00040420F002DE9FF4F81B089460446FFF712
:1009B000C7FE054694F83D004FF0000820287DD181
:1009C0001923012250492046009500F0AFFF00286E
:1009D00074D194F83C00012870D0012084F83C00C8
:1009E00020680168C90703D1016841F00101016075
:1009F0002068016821F400610160242084F83D0032
:100A0000002626644148E0624FF0011B2027206841
:100A1000016841F48071016000950022594620462A
:100A2000049B00F083FF50B120680068C00502D528
:100A30004FF400702064032005B0BDE8F08F2168FA
:100A400009F0FE000861FFF77BFE21680546486952
:100A50004969C0F34000C1F380214FF0A00A0FE0C4
:100A6000FFF76EFE411B0498814200D808B984F854
:100A70003DA0216848694969C0F34000C1F3802165
:100A800094F83D20A02A02D008B90029E8D084F8C3
:100A90003D7020684169C943890716D4016841F453
:100AA000007101602068416980691923012216499B
:100AB0002046009500F03AFFB8B900E021E084F844
:100AC0003D7084F83C600020B6E7016841F4007195
:100AD000016021686FF480604861192301220A498E
:100AE0002046009500F022FF08B10120A4E70398FA
:100AF00008F1010880458AD384F83D7084F83C6091
:100B0000F3E7022098E70000020010000000FFFF5A
:100B10002DE9F84F1F4690468A460446DDF8289096
:100B2000FFF70EFE054694F83D00202875D11923E5
:100B300001226C492046009500F0F8FE0028F5D10E
:100B400094F83C00012868D0012084F83C0020681B
:100B50000168C90703D1016841F001010160206803
:100B6000016821F400610160222084F83D0010201A
:100B700084F83E0000262664C4F824806785608DD2
:100B800020855948E0622B464A465146204600F0EF
:100B9000E3FD002878D1208D544F68B1012814D08E
:100BA00002282068016816D041F480610160206845
:100BB00041698069009087E02068416981690091FE
:100BC000016841F4007101607EE02068016821F451
:100BD00080610160F0E721F48061016020680168B4
:100BE00041F40061E2E7032848D801280AD002282E
:100BF00014D04B46002239462046009500F096FE60
:100C0000D8BB27E02A464946204600F00EFFA0BB8D
:100C100020680069616A08704DE061E04B4600227F
:100C200039462046009500F081FE30BB20680168FF
:100C300041F40071016020680069616A0870606AAF
:100C4000401C6062218D491E2185618D491E618590
:100C500021682EE02068016821F48061016020682D
:100C60000069616A0870606A401C6062208D401EE5
:100C70002085608D401E6085D0E705E02A46494604
:100C8000204600F0D2FE10B10120BDE8F88F2068A8
:100C90000069616A0870606A401C6062218D491EAB
:100CA0002185618D491E618521684A69D2435207B9
:100CB0000AD409690170606A401C6062208D401E80
:100CC0002085608D401E6085208D00288BD12020DE
:100CD00084F83D0084F83E6084F83C600020D4E74E
:100CE0000220D2E7020010000000FFFF0400010014
:100CF0002DE9F84F1F4690468A460446DDF82890B5
:100D0000FFF71EFD054694F83D0020287FD11923EA
:100D1000012240492046009500F008FE002876D1C7
:100D200094F83C00012872D0012084F83C0020682F
:100D30000168C90703D1016841F001010160206821
:100D4000016821F400610160212084F83D00102039
:100D500084F83E0000262664C4F824806785608DF0
:100D600020852D48E0622B464A465146204600F039
:100D700069FD90B9206841698069009036E02A4693
:100D80004946204600F084FE50B1206C042804D16E
:100D90002068016841F4007101600120BDE8F88F0E
:100DA000606A216800780861606A401C6062618D39
:100DB000491E6185218D491E89B2218522685369AA
:100DC000DB435B070BD451B100781061606A401CB3
:100DD0006062608D401E6085208D401E20852A4601
:100DE0004946204600F07CFD0028CED1208D002809
:100DF000C5D154F83D0B016841F400710160202019
:100E000004F81E09E67766770020C7E7FFE70220AF
:100E1000C4E70000020010000000FFFFF0B587B03B
:100E2000044614216846FFF7DBFA2768234CDFF8F5
:100E300088C00022214912230325042620481034AB
:100E4000674518D10F6847F002070F60096802AFC5
:100E500001F002010591C021CDE9001387E864008B
:100E60006946FFF767FB206840F4001020602068A7
:100E700000F400101CE0DFF84CC0674519D10F6882
:100E800047F002070F60096802AF01F00201059107
:100E90004FF44061CDE9001387E864006946FFF72D
:100EA00049FB206840F480002060206800F4800046
:100EB000059007B0F0BD00000054004030380240FB
:100EC0000004024000580040024881680278114442
:100ED000816070471C0000200B4810B5016841F488
:100EE00000710160016841F480610160016841F4B2
:100EF00080710160032000F061F80F2000F006F817
:100F000000F024F8002010BD003C024070B50D4DEB
:100F100004464FF47A712878B1FBF0F00A49096869
:100F2000B1FBF0F000F0FEFA48B9102C07D2002215
:100F30002146501E00F022F800206C6070BD012098
:100F400070BD00001C000020280000200A4808B5E1
:100F5000016841F480410160006800F48040009025
:100F60000548001F016841F080510160006800F0F1
:100F70008050009008BD000044380240F0B40E4B91
:100F80001B680C46C3F30223C3F10705042D00D9E7
:100F90000425191D072901D2002300E0DB1E0126CC
:100FA00006FA05F1491E214099409E40761E1640E2
:100FB0003143F0BC00F0E5BE0CED00E0064900F066
:100FC000070208684FF6FF03184040EA0220034A70
:100FD00010430860704700000CED00E00000FA05C7
:100FE0002DE9F0470E46050065D0DFF81481D8F8EA
:100FF0000000F7B200F00700B04207D288F8007096
:10100000D8F8000000F00700B04254D128683D4CE9
:10101000810712D5400703D5206840F4E0502060D6
:101020002878000703D5206840F4604020602068DD
:10103000A96820F0F000084320602878C0072DD070
:10104000304968680839012812D0022813D00328D3
:1010500011D00968890700292DDA216821F00301E0
:1010600001432160FFF76CFB814641F2883A0EE0B4
:1010700009688903EFE709688901ECE7FFF760FB7E
:10108000A0EB0901514502D90320BDE8F087206893
:10109000696800F00C00B0EB810FEFD1D8F80010B8
:1010A000404601F00701B14207D90770006800F01F
:1010B0000700B04201D00120E7E72878400705D5B6
:1010C0002068E96820F4E050084320602878000791
:1010D00006D52068296920F4604040EAC1002060FC
:1010E00000F038F82168084AC1F30311515CC84088
:1010F0000649086006480068FFF708FF0020C4E7BB
:10110000003C0240083802406232000828000020FB
:10111000200000200448054900680968044AC1F31A
:101120008221515CC84070472800002008380240E6
:10113000723200080448054900680968044AC1F38E
:101140004231515CC84070472800002008380240F6
:1011500072320008154810B5006810F00C021448EF
:1011600013D01449042A0FD0082A0ED10F4C241F83
:101170002268236802F03F025B0207D52068C0F3B3
:101180008810A0FB010106E0084610BD2168C1F3EC
:101190008811A1FB00010023FFF766F82168C1F365
:1011A0000141491C4900B0FBF1F010BD0838024074
:1011B0000024F40040787D012DE9F84F04006ED042
:1011C0002078DFF84C93C007A9F104054AD009F153
:1011D00004000168C1F38101012908D00068C0F34F
:1011E000810002280AD1D9F80000400206D52868FB
:1011F000800337D560680028E1D033E06068B0F53F
:10120000803F10D0B0F5A02F286810D020F4803097
:101210002860286820F4802028606068A8B1FFF763
:101220008FFA06460DE0286840F48030F4E740F479
:1012300080202860F7E700BFFFF782FA801B642850
:1012400073D828688003F7D50CE0FFF779FA0646D3
:1012500005E000BFFFF774FA801B6428F0D8286807
:101260008003F7D42078DFF8AC8280074FF0000AC3
:101270003ED5A748001D016811F00C0F08D000688A
:10128000C0F3810002280BD1D9F80000400207D436
:101290002868800716D5E068012800D112E033E104
:1012A000E068B8B10120C8F80000FFF749FA064627
:1012B00005E000BFFFF744FA801B0228C0D8286869
:1012C0008007F7D52868216920F0F80040EAC100BE
:1012D00028600DE0C8F800A0FFF732FA064604E0E7
:1012E000FFF72EFA801B02281FD828688007F7D442
:1012F0002078000722D5864F87486169703771B121
:1013000001210160FFF71CFA064604E0FFF718FA16
:10131000801B022809D838688007F7D50EE0C0F88E
:1013200000A0FFF70DFA064605E082E0FFF708FA95
:10133000801B02287DD838688007F7D420784007C2
:1013400068D5DFF8CCB100270BF13C0BDBF80000CF
:10135000C0000BD4DBF8001041F08051CBF8001036
:10136000DBF80000012700F0805000906B4E3068E1
:10137000C00510D4306840F480703060FFF7E0F9A9
:10138000009005E0FFF7DCF90099401A022850D8D8
:101390003068C005F6D55E4EA0686C3601280FD0C7
:1013A0000528306810D020F001003060306820F04F
:1013B00004003060A068B8B1FFF7C2F900900FE0F8
:1013C000306840F00100F4E740F004003060F7E7D7
:1013D000FFF7B6F90099411A41F28830814266D888
:1013E00030688007F4D50EE0FFF7AAF9009007E017
:1013F000FFF7A6F90099411A41F28830814256D888
:1014000030688007F4D42FB1DBF8001021F0805150
:10141000CBF80010A069C8B33D49091D0968C1F3A4
:10142000810102294AD00228504607D0C8F860003E
:1014300000E03CE0FFF784F904463BE04746C8F88B
:101440006000FFF77DF9064605E000BFFFF778F979
:10145000801B02282BD828688001F7D4D4E9070123
:101460000843A16A2E4A490802EB0141626A41EA37
:101470008211084394F82C1040EA0161C9F8001069
:1014800001203866FFF75CF9044606E03EE000BF45
:10149000FFF756F9001B022809D828688001F7D504
:1014A00034E000BFFFF74CF9001B022802D90320EB
:1014B000BDE8F88F28688001F4D427E00128F7D030
:1014C000D9F80000E26900F4800191421CD1226A3F
:1014D00000F03F01914217D147F6C071626A0140A6
:1014E000B1EB821F10D1A26A4FF0FF3300F44031FC
:1014F00003EB5202B1EB024F06D194F82C1000F02E
:101500007060B0EB016F01D00120D1E70020CFE780
:101510000438024000004742800E474200700040FD
:101520000000FFFF10B5401EB0F1807F01D3012005
:1015300010BD4FF0E02460610F21601700F021FC26
:101540000020A06107202061002010BD10B586B0EA
:10155000044614216846FEF743FF13492068884279
:1015600020D112480021026842F400320260006873
:1015700000F4003005900D481038026842F0010276
:101580000260006800F00100059004200090122025
:10159000CDE9010103200390072004906946044827
:1015A000FEF7C8FF06B010BD0044004040380240BE
:1015B000000002402DE9F84F044690F83E009A469C
:1015C00016460D46202853D1FDB1F6B194F83C00E3
:1015D00001284DD0012084F83C00002727642220F8
:1015E00084F83E002763FFF7ABF8A6858146E685C1
:1015F000A0684FF48058404501D1206940B12E4683
:101600005FF0000584F83C7027E00120BDE8F88F0A
:101610000026F7E74B46002220212046CDF800A007
:1016200000F072FB08B10320F0E726B1A068404546
:101630001BD038B108E020684068C0F3080025F8E6
:10164000020B07E0206980B12068406800F07F004D
:1016500006F8010BE08D401EE085E08D0028D9D111
:10166000202084F83E000020D0E720684068EFE7A3
:101670000220CBE72DE9F843044690F83D001F46D1
:1016800016460D4620284CD1C5B1BEB194F83C0099
:10169000012846D0012084F83C004FF00008C4F82F
:1016A0004080212084F83D00FFF74AF8A684814657
:1016B000E684A068B0F5805F03D004E00120BDE8B7
:1016C000F883206928B12E465FF0000584F83C803D
:1016D0000EE00026FAE78021204600F015FBA0B9B5
:1016E000AEB116F8010B21684860E08C401EE08422
:1016F000E08C4B464FF0000200970028EBD14FF0F2
:101700004001204600F000FB30B10320D7E735F858
:10171000020BC0F30800E6E7202084F83D0000201B
:10172000CDE70220CBE7FEE701684A69D2435205C4
:101730000FD46FF480624A61002140F8301F2022EC
:1017400042738173026942F0040202610173012055
:1017500070470020704700002DE9F84F0446C06A2A
:101760001E4693460D4621680A6842F480620A606C
:10177000082807D0012805D010F5803F02D0206B43
:10178000112804D12068016841F4807101604FF094
:1017900001195B46002249462046009600F0C6F833
:1017A0004FF4007840B120680068C00501D5C4F846
:1017B00040800320BDE8F88F2069DFF884A0B0F5F1
:1017C000804F0FD00620216800EAD51747F0F000BF
:1017D000086133465A460AF10601204600F0DAF85D
:1017E00058BB03E0E8B240F001001CE02168E8B219
:1017F000086133465A465146204600F0CBF8E0B91E
:101800002068416981690091016841F4807101603B
:101810005B46002249462046009600F087F80028E3
:10182000C1D147F0F1002168086133465A4651465C
:10183000204600F0AFF80028BCD00120BAE7000035
:1018400002000100F8B50446C06A1E460D46174660
:10185000082807D0012805D010F5803F02D0206B62
:10186000122804D12068016841F480710160134698
:1018700000224FF001112046009600F057F840B1C9
:1018800020680068C00502D54FF400702064032072
:10189000F8BD2069B0F5804F0ED00620216800EA1F
:1018A000D51040F0F000086133463A460B49204617
:1018B00000F070F878B902E005F0FE0000E0E8B250
:1018C00021680861054933463A46891F204600F0E1
:1018D00061F80028DCD00120F8BD000008000100FC
:1018E00070B516460D4604460DE02046FFF71CFF76
:1018F00008B1012070BD681C05D0FEF721FF801BD8
:10190000A84207D835B120684069C0434007ECD4ED
:10191000002070BD002044F8300F20216173A073B7
:10192000216941F0200121612073E2E72DE9F047B0
:101930001E4690460D460446C1F30747DDF8209049
:1019400008E0701C06D0FEF7FBFEA0EB0900B042D9
:101950000FD876B12068012F18D0806925EA0000E1
:101960000004000C14D000214145EAD00020BDE85D
:10197000F087002044F8300F20216173A0732169A3
:1019800041F02001216120730120F0E74069E5E783
:101990000121E9E72DE9F0479A4691460E460446B3
:1019A00000254FF02008C1F3074725E02068406973
:1019B000C043400514D42068016841F400710160FF
:1019C00021686FF480604861256384F83D8084F865
:1019D0003E50206C40F00400206484F83C501FE02E
:1019E000B9F1FF3F08D0FEF7ABFEA0EB0A01494575
:1019F0000CD8B9F1000F09D02068012F13D08069ED
:101A000026EA00000004000C0BD0CFE744F8305F5A
:101A100084F80D80A573206940F0200020612573B3
:101A20000120BDE8F0874069EAE72DE9F041002593
:101A300090460E460446202717E04069C043C00682
:101A40000CD454F8301B6FF01000486144F8105962
:101A50006777A577206A2062257717E0FEF770FE8A
:101A6000A0EB0800B04208D83EB120684169C943E4
:101A70004906E2D40020BDE8F08144F8305F677386
:101A8000A573206940F02000206125730120F2E752
:101A900070B516460D4604460DE02046FFF744FE9D
:101AA00008B1012070BD681C05D0FEF749FE801BFF
:101AB000A84207D835B120684069C0430006ECD47D
:101AC000002070BD002044F8300F20216173A07306
:101AD000216941F0200121612073E2E770B586B0F1
:101AE00014216846FEF77CFC16480024016841F08A
:101AF00080010160016801F080010591016841F0F9
:101B000001010160016801F001010591016841F0E6
:101B10000201016000680C4E00F002004FF40075F5
:101B20000590002229463046FEF704FE012000956C
:101B3000CDE90104694630460394FEF7FBFC06B08C
:101B400070BD00003038024000040240FEE7FEE7AE
:101B500070477047FFF7B8B930B593B03021684689
:101B6000FEF73EFC14210CA8FEF73AFC1D480025A8
:101B7000016841F080510160006800F080501190D0
:101B80001948016841F4804101600068022400F4B2
:101B9000804011900120039010200490009406943E
:101BA0000820CDE90750A820CDE9090404200B90B6
:101BB0006846FFF701FB08B172B6FEE70CA90F20DB
:101BC00081E831004FF4A0500F904FF480501090F6
:101BD00005210CA8FFF704FA002801D072B6FEE731
:101BE00013B030BD40380240007000400248016828
:101BF00041F470010160704788ED00E070B5044663
:101C000000680169E26821F44051114301612169D2
:101C1000A068E26908436169114308432168CA6802
:101C200049F20C639A430243CA6020684169A26981
:101C300021F440711143416131492068884202D04A
:101C40003049884202D1FFF775FA01E0FFF762FAE6
:101C5000E2690023192164253226B2F5004F62683B
:101C600028D0A0FB0101930F9200FEF7FDFA014678
:101C7000B0FBF5F06FF01802504301EB800006EB6B
:101C80000010B0FBF5F000F0F002B1FBF5F002EB54
:101C90000012B1FBF5F06FF01803584301EB800020
:101CA00006EB0010B0FBF5F000F00F0021681044C7
:101CB000886070BDA0FB010192185B41FEF7D4FA69
:101CC0000146B0FBF5F00201B1FBF5F06FF018032F
:101CD000584301EB800006EBC000B0FBF5F000F0CC
:101CE000F80002EB4002B1FBF5F0584301EB800035
:101CF00006EBC000B0FBF5F000F00700D6E70000EF
:101D000000100140001401402DE9F04198461746AB
:101D10000E460446069D27E0681C25D02DB1FEF72F
:101D20000FFDA0EB0800A8421ED920680C3050E837
:101D3000001F21F4D07140E80012002AF5D120687C
:101D4000143050E8001F21F0010140E80012002A81
:101D5000F5D1202084F83D0084F83E00002084F86E
:101D60003C000320BDE8F0812068006836EA0000EE
:101D700004D00020B842CFD00020F3E70120F9E7DB
:101D8000FEE70907090E002804DB00F1E02080F8D7
:101D90000014704700F00F0000F1E02080F8141DDF
:101DA000704710B50023022203E0845C521C2344D8
:101DB000DBB28A42F9DBD843C0B210BD024B1860D7
:101DC00081F82320704700001800002070B50546F8
:101DD00000F03CF80446284600F004F844EA0020ED
:101DE00070BD00007CB515A10546D1E90001CDE923
:101DF000000195F823008DF80200082168460F3590
:101E0000FFF7CFFF0F4C8DF807002068FEF7B7FCF7
:101E10000A23082269462068FFF72CFC2068FEF799
:101E200095FC0A23082208492068FFF7C3FB0648EF
:101E3000016829604168696040797CBDFFFF00044A
:101E40000225010018000020B80100207CB515A172
:101E50000546D1E90001CDE9000195F823008DF890
:101E60000200082168460F35FFF79BFF0F4C8DF8E5
:101E700007002068FEF783FC0A23082269462068D1
:101E8000FFF7F8FB2068FEF761FC0A2308220849E7
:101E90002068FFF78FFB0648016829604168696088
:101EA00040797CBDFFFF00040224010018000020DF
:101EB000B80100202DE9F0410D461F469046064628
:101EC000012100F0EFF80021304600F083F840F2E5
:101ED000FF342146304600F04BF83A464FF4FA7191
:101EE000304600F0A9F82946304600F00FF84FF4CC
:101EF0007A70FEF70DFB3A464146304600F09CF8FA
:101F000021463046BDE8F041AFF300803EB513A452
:101F10001CCC8DE81C0090F823008DF802008DF891
:101F20000610080A8DF8070009216846FFF739FFF7
:101F30000D4C8DF808002068FEF721FC0A230922C9
:101F400069462068FFF796FB2068FEF7FFFB0A232F
:101F5000062206492068FFF72DFB3EBDFFFF000566
:101F6000031E00000000000018000020B80100203F
:101F70003EB513A41CCC8DE81C0090F823008DF80E
:101F800002008DF80610080A8DF80700092168463E
:101F9000FFF707FF0D4C8DF808002068FEF7EFFBF8
:101FA0000A23092269462068FFF764FB2068FEF7D0
:101FB000CDFB0A23062206492068FFF7FBFA3EBD47
:101FC000FFFF0005030800000000000018000020CB
:101FD000B80100203EB513A41CCC8DE81C0090F87D
:101FE00023008DF802008DF80610080A8DF807000E
:101FF00009216846FFF7D5FE0D4C8DF808002068D2
:10200000FEF7BDFB0A23092269462068FFF732FB71
:102010002068FEF79BFB0A23062206492068FFF78B
:10202000C9FA3EBDFFFF00050306000000000000E6
:1020300018000020B80100203EB50B0A012A01D18A
:1020400043F0040312A534CD8DE8340090F823004A
:102050008DF806108DF802008DF8073009216846CA
:10206000FFF79FFE0D4C8DF808002068FEF787FBF8
:102070000A23092269462068FFF7FCFA2068FEF768
:1020800065FB0A23062206492068FFF793FA3EBD46
:10209000FFFF0005032000000000000018000020E2
:1020A000B80100203EB512A41CCC8DE81C0090F8AD
:1020B00023008DF802008DF8061009216846FFF70D
:1020C00070FE0E4C8DF808002068FEF758FB0A23BE
:1020D000092269462068FFF7CDFA2068FEF736FB33
:1020E0000A23062206492068FFF764FA3EBD000075
:1020F000FFFF000503180001000000001800002089
:10210000B801002070B59FED2B0B0D462DED0A8B0D
:10211000044653EC102B91ED028B51EC180B00F0A0
:1021200071FE95ED009B53EC192B00F0E3FB95ED50
:1021300004BB53EC1B2B00F0DDFB94ED060B41ECD4
:102140001A0B53EC1B2B51EC100B00F05BFE94EDC3
:10215000040B41EC1B0B53EC182B51EC100B00F053
:1021600051FE94ED020B41EC1C0B53EC182B51EC7F
:10217000100B00F047FE94ED000B41EC180B53ECF4
:10218000192B51EC100B00F03DFE53EC182B00F016
:10219000B1FB53EC1C2B00F0ADFB53EC1B2B00F000
:1021A000A9FB53EC1A2B00F059FCBDEC0A8B41EC57
:1021B000100B70BD000000000000004070B50D461F
:1021C0002DED0A8BB0EE408AF0EE608A04469FED5A
:1021D0007CCB9FED7D9B90ED040B51EC180B53ECE9
:1021E000102B00F0D3FD02D285ED00CB35E094ED4D
:1021F000040B51EC180B53EC102B00F001FF21D80D
:1022000094ED020B51EC180B53EC102B00F0BEFDBB
:1022100018D894ED040B94ED02BB53EC102B51EC49
:102220001B0B00F02FFF41EC1A0B53EC182B51EC59
:102230001B0B00F027FF53EC1A2B00F00FFCC5E935
:1022400000010AE094ED020B51EC180B53EC102B3B
:1022500000F0D6FE01D285ED009B94ED040B51EC0D
:10226000180B53EC102B00F091FD62D394ED040B8E
:1022700051EC180B53EC102B00F0C2FE1FD894ED5C
:10228000020B51EC180B53EC102B00F07FFD16D80D
:1022900094ED04AB94ED020B53EC1A2B51EC100BA4
:1022A00000F0F0FE41EC1B0B53EC1A2B51EC180B19
:1022B00000F0E8FE41EC100B53EC1B2B29E094EDF1
:1022C000020B51EC180B53EC102B00F099FE27D8A1
:1022D00094ED000B51EC180B53EC102B00F056FD55
:1022E0001ED894ED041B94ED020B53EC112B51EC12
:1022F000100B00F0C7FE94ED000B41EC1A0B53ECF1
:10230000182B51EC100B00F0BDFE53EC1A2B41ECD6
:10231000100B51EC100B00F0A1FBC5E902010AE023
:1023200094ED000B51EC180B53EC102B00F068FEF1
:1023300001D285ED029B94ED020B51EC180B53EC8E
:10234000102B00F023FD04D285ED049BBDEC0A8B1D
:1023500070BD94ED020B51EC180B53EC102B00F0F8
:102360004FFE21D894ED000B51EC180B53EC102BC1
:1023700000F00CFD18D894ED040B94ED029B53EC87
:10238000102B51EC190B00F07DFE41EC1A0B53ECB5
:10239000192B51EC180B00F075FE53EC1A2B00F0C2
:1023A0005DFBC5E90401D1E794ED000B51EC180B7E
:1023B00053EC102B00F024FEC8D285ED04CBC5E70A
:1023C000000000000000F03F0000000000000000DE
:1023D00070B515462DED028B0E460446012B62D0DA
:1023E000022B5DD194ED040B94ED028B53EC102B7A
:1023F00051EC180B00F046FE96ED041B53EC112B2C
:1024000000F000FD53EC182B00F030FEC5E9000190
:1024100094ED048B94ED020B53EC182B51EC100B44
:1024200000F030FE96ED021B53EC112B00F0EAFC9D
:1024300053EC182B00F05EFAC5E9020194ED041B81
:1024400094ED020B53EC112B51EC100B00F01AFE23
:1024500096ED021B53EC112B00F0D4FC94ED001B05
:1024600053EC112B00F002FEC5E9040194ED040BBE
:1024700094ED028B53EC102B51EC180B00F002FE84
:1024800041EC100B96ED001B51EC100B53EC112B93
:1024900000F0B8FC53EC182B00F02CFAC5E906014B
:1024A000BDEC028B70BD94ED040B94ED028B53ECEC
:1024B000102B51EC180B00F0E5FD96ED001B53ECD2
:1024C000112B00F09FFC53EC182B00F0CFFDC5E959
:1024D000000194ED048B94ED020B53EC182B51EC9E
:1024E000100B00F0CFFD96ED021B53EC112B00F00A
:1024F00089FC53EC182B00F0FDF9C5E9020194EDBD
:10250000041B94ED020B53EC112B51EC100B00F05B
:10251000B9FD96ED021B53EC112B00F073FC94ED0A
:10252000001B53EC112B00F0A1FDC5E9040194ED53
:10253000040B94ED028B53EC102B51EC180B00F0B4
:10254000A1FD41EC100B96ED041B9DE780ED040B03
:1025500080ED021B80ED002B704780ED040B80EDB9
:10256000021B80ED002B704770B58AB014A106469F
:10257000D1E900016425144C0095CDE90101062341
:1025800001AA21786068FEF7B3FB0095102303AA27
:1025900021786068FEF7BCFABDF81100ADF81C00A8
:1025A000BDF81300ADF81E00BDF81500ADF8200011
:1025B00007983060BDF82000B0800AB070BD000000
:1025C00055AA1100203000000000002070B594B022
:1025D00022A10646D1E900016425224C0095CDE9EF
:1025E0000101062301AA21786068FEF781FB0095AE
:1025F000322307AA21786068FEF78AFA9DF8200046
:1026000029280BD1BDF82100ADF80C00BDF823003E
:10261000ADF80E00BDF82500ADF810009DF83000B3
:102620002A2813D1BDF83100ADF81200BDF83300EF
:10263000ADF81400BDF83500ADF81600BDF8370050
:10264000ADF81800BDF83900ADF81A00102203A942
:102650003046FDF780FE14B070BD000055AA110091
:10266000213100000000002030B5044685B0322042
:10267000FDF74EFF1E4D6C600024A1B20A2301221B
:102680006868FEF78FF900B92C70641CFF2CF4DB2E
:1026900018A16424D1E900010094CDE903010623C7
:1026A00003AA29786868FEF723FB0094062301AA91
:1026B00029786868FEF72CFA9DF80400552812D195
:1026C0009DF80500AA280ED19DF8060011280AD110
:1026D0009DF8070038B99DF808002E2803D19DF811
:1026E00009003E2802D0032005B030BD0020FBE7E2
:1026F0000000002055AA11002C3C00002DED028B9B
:1027000084B0FEF7E9FBFFF727FAFFF7E7F9674820
:102710006549674E00240160C0E901640D14C0E9F9
:10272000034544618461C4610462FEF777F808B12F
:1027300072B6FEE75D485F4954300160C0E901644C
:10274000C0E9034544618461C4610462FEF766F830
:1027500008B172B6FEE755485749A830016057499D
:10276000C0E901140C21C460C0E904418461C46162
:10277000FEF71EF808B172B6FEE79FED512B9FEDF4
:10278000521B9FED538B5448B0EE480AF0EE680A96
:10279000FFF7DCFE9FED512BB0EE481AF0EE681A01
:1027A0009FED500B4C481830FFF7D7FE4A491122D5
:1027B0002439A1F15400FFF701FB474801236422AB
:1027C00000212438FFF776FB38485430FFF74CFFE0
:1027D00020B94FF480514548FDF7A4FF6846FFF744
:1027E000C3FE434C00983C4DC4F80200BDF8040001
:1027F000E080343D6846FFF7E9FE3748102269461D
:102800003438FDF7A8FDE8890128F3D1324824388F
:10281000FFF7DCFA2080E88800F0A5FA41EC100B05
:102820002D492D483031FFF7C9FC2B4A012348328E
:10283000A2F11801A1F11800FFF7CAFD26493031B5
:1028400001F11800FFF75EFC84ED020B53EC182B2E
:1028500051EC100B00F0D4FB01D801220DE0B0EEDA
:10286000480AF0EE680A53EC102B94ED020B51EC81
:10287000100B00F08BFABDD2002217483221243809
:10288000FFF7DAFB208800F06EFA94ED021B53ECA0
:10289000112B00F0F7FB00F039FA81B20E48243812
:1028A000FFF734FBA6E70000005400403000002092
:1028B000A0860100005800400044004040420F0044
:1028C00000000000000074400000000000006440B0
:1028D0000000000000000000500100200000000087
:1028E0000000374000000000000037C0000C02402C
:1028F0000800002010B591EA030F48BF83F00043A1
:1029000000F1C883841A71EB030C05D2121943EB52
:102910000C03001B61EB0C01DFF824E14FEA1154BA
:10292000A4EB135C1EEA430F18BF9EEA445F73D00A
:1029300023EA0E03DCF1200E21EA045143F4801354
:1029400032D322FA0CFE10EB0E0023FA0CFE41EB00
:102950000E01CCF1200E03FA0EFE10EB0E0051F129
:102960000001B1F5801FCCF1200E32D201EB0451F1
:1029700012FA0EF2BDE8104058BF7047401C38BF35
:102980005FEA420218BF7047002814BF20F0010020
:1029900041F100014FEA410313F5001F38BF7047B2
:1029A000A1F1C04100F026BB012A43EB0302ACF1C8
:1029B000200CDCF11F0E32BF4FF0000E23FA0CF397
:1029C00010EB030041EB0451B4EB115FD0D0A1EB4D
:1029D000045101F5801149085FEA300001EB045110
:1029E0000ED350F1000038BF12FA0EFE08D1BDE838
:1029F0001040C9E7401C38BF5FEA4202CAD1C3E7B2
:102A0000BDE810404FEA410313F5001F38BF70477F
:102A1000A1F1C04100F0EEBA9EEA445F08D011EA8D
:102A20005E0FBDE8104004BF01F000410020704778
:102A3000BDE8104070B500F08FFA00BF64FBBE3EE9
:102A40000000E0FF491058BFC1F140415B1058BF82
:102A5000C3F140438B42EFF3008070472DE9C04142
:102A600030B4DFF8A0C23CEA111418BF3CEA1314DA
:102A700000F0EC8081EA03051CEA111444EAD574E5
:102A800018BF1CEA131500F0C780A4EB05044FF033
:102A9000004545EAC12145EAC32341EA505143EAD2
:102AA000525304F17F74994204F500344FEAC02078
:102AB0004FEAC22208BF904200F09C804FEA1365A3
:102AC0000FF24016765D4FEA134506FB05F7C7F196
:102AD000807706FB07F74FEAD737A7FB03687642F4
:102AE000C8F58038A7FB06CE38BFA8F1010807FB60
:102AF00008E64FF0000EA6FB028CE6FB03CEDCF1ED
:102B0000000CCEF1004E38BFAEF1010EA6FB0C5802
:102B10004FF000074FF00005E6FB0E87A1FB08C64B
:102B2000A0FB07CE16EB0E0645F10005E1FB07659D
:102B300015F1E04E7EBFA4F580345FEA46066D4194
:102B400016F1800745F100054FEA17274FEA0666A0
:102B500047EA0567A6F1DE46B6F1805F4FEA152524
:102B60001FD9384624F0010C05EBC471BCF1FE6F8F
:102B700001EB0C1102D8F0BCBDE8008124425CBF1F
:102B800001F5801E9EEAC47F02D4F0BCBDE800813E
:102B9000244238D4F0BCA1F1C041BDE8004100F0AE
:102BA00029BA4FEAD22242EA43524FEAD323A7FB83
:102BB00002864FEAD02040EA415007FB03661EEA36
:102BC0000E0F4FEAD12105FB026658BFA6EB005657
:102BD000B6EB00564FEA520E4EEAC37E18EB0E0ECD
:102BE00056EB530EBDD518EB02085E417F1C55F124
:102BF0000005B6E74FF480154FF000074FF00006D0
:102C00004FF00008ADE7F0BC4FF0000001F1C0410B
:102C100001F00041BDE8008111EA0C1F0CEA131518
:102C200000D00CE013EA0C1F00F025804FF00000EC
:102C3000F0BC81EA030101F00041BDE80081F0BC75
:102C4000BDE8004181EA030100F0D4B9F0BCBDE861
:102C5000004170B500F080F9097EFC3E00F007B835
:102C600081EA03014FF0000001F00041704781EA62
:102C7000030100F0BFB9F0BCBDE800414FF0000017
:102C800021497047FFFDFBF9F7F5F4F2F0EEEDEBAB
:102C9000E9E8E6E4E3E1E0DEDDDBDAD8D7D5D4D35A
:102CA000D1D0CFCDCCCBCAC8C7C6C5C4C2C1C0BFA6
:102CB000BEBDBCBBBAB9B8B7B6B5B4B3B2B1B0AFAC
:102CC000AEADACABAAA9A8A8A7A6A5A4A3A3A2A190
:102CD000A09F9F9E9D9C9C9B9A999998979796954B
:102CE00095949393929191908F8F8E8E8D8C8C8BE7
:102CF0008B8A89898888878786858584848383826F
:102D0000828181800000FF070000F87F4FEA1153A5
:102D1000A3F58063D3F11E03A8BFD3F1200C08DB19
:102D20004FF0004242EAC12252EA505232FA03F016
:102D3000704709420BD4102BC4BF0020704703F525
:102D4000787CBCF1FF3F05D04FF0FF3070474FF06B
:102D50000000704770B500F0FFF800BF4992248072
:102D600000207047F0E7B0FA80F310FA03F10AD0C0
:102D7000C3F11D0303F580634FEA41504FEA03524C
:102D800002EBD12170474FF00000704751EA030C6D
:102D900017D41CF5801F58BFBCF5801F00F10680BA
:102DA000994218BF704708BF9042704707D711F586
:102DB000801F58BF13F5801F19D49942704789426C
:102DC00070471CF5801F08D5BCF5801FF7D58B42D6
:102DD00018BF704708BF824270474FF4001C1CEBBD
:102DE000410F38BF1CEB430F01D28B42704770B5C7
:102DF00000F0B2F8922449004FF000514FF0805398
:102E0000FFF720BEDFF848C170B51CEA111E1EBFD7
:102E10001CEA13159EEA0C0F95EA0C0F00F06F8068
:102E200081EA030423EA4C134EEAD47E21EA4C11D2
:102E300041F4801143F48013AE44A1FB024CA0FB8B
:102E40000365AEF17F7E361955EB0C05A1FB034CF3
:102E50004CF10003A0FB021C16EB0C06654153F17C
:102E60000003094218BF46F0010613F4007F0BD19E
:102E70004FEA03314FEA0530340341EA155140EA85
:102E800016506FF003020AE04FEAC3214FEAC52053
:102E9000F40241EA555140EA56506FF0020202EB4B
:102EA0002E4201EB025585EACE710AD05FEA440C4E
:102EB00018BF24F0004450F1000041F1000120EA65
:102EC000D47040F2FE7C624500D270BDA84214BFAF
:102ED0004FF080444FF04044002E08BF0024BEF164
:102EE000806FA8BFA1F1C041BDE8704080F2828030
:102EF0004FF0000001F1C04101F0004170479EEA2F
:102F00000C0F0CEA131518BF95EA0C0F06D04FF002
:102F1000000081EA030E0EF0004170BD00F01CF8C5
:102F20008900013E00F007B800F009B84FEA430CF1
:102F30005FEA5C5C08D081EA030100F05BB84FEA0D
:102F4000410C5FEA5C5CF6D14FF00000014970472C
:102F50000000FF070000F87F0EF1020E2EF0030EB6
:102F60005EF8046B364205D4012A43EB030515F5E0
:102F7000001F12D8012841EB010C1CF5001F0CD8D2
:102F80000ED14FEAD17C15F5001F0CEB4C0C0CF167
:102F9000020C08BF4CEBD37C04E04FF0080C01E0BE
:102FA0004FEAD37C0CEB4C0526FA05F606F0070633
:102FB000B6F1040C06D20EEB860CBDE870404CF066
:102FC000010C6047DFE80CF0090B02024FF00041F2
:102FD0004FF00000A1F5002170BD194610460128F0
:102FE00051EB010418BFD4F5001484BF002001F098
:102FF000004170BD0808A0F500114FEA310170478B
:1030000053EA010C17D41CF5801F58BFBCF5801F74
:1030100000F106808B4218BF704708BF824270479C
:1030200007D713F5801F58BF11F5801F19D48B42A5
:1030300070479B4270471CF5801F08D5BCF5801F68
:10304000F7D5994218BF704708BF904270474FF4B8
:10305000001C1CEB430F38BF1CEB410F01D29942FF
:1030600070470FB40CBC03BCFFF7C1BE91EA030F5D
:1030700010B581F000413FF545AC83F0004300F00E
:1030800009B8000010B591EA030F48BF83F0004370
:103090003FF538AC841A71EB030C07D212198CF08F
:1030A000004C43EB0C03001B61EB0C01DFF8A4E1C7
:1030B0004FEA1154A4EB135C1EEA430F18BF9EEABB
:1030C000445F00F0B08023EA6E03524221EA0451CB
:1030D000C3EB6E0338BF5B1EDCF1200E25D322FA52
:1030E0000CFE10EB0E0043FA0CFE41EB0E01CCF18E
:1030F000200E03FA0EFE10EB0E0051F10001CCF190
:10310000200E29D412FA0EF201EB0451BDE8104052
:1031100058BF7047401C1CBFB2F1004F70470028D9
:103120000CBF491C20F00100704712EB020E43EB6C
:10313000030218BF4FF0010E4EEA4202ACF1200C20
:10314000DCF11E0E54D943FA0CFE10EB0E0051F1C7
:10315000FF31CCF11E0ED5D50EF1010E12FA0EFE86
:10316000404141EB010101EB445C5FEA5C5C10D93A
:1031700010EBDE7001EB045138BFBEF1004FBDE82B
:10318000104018BF704700280CBF491C20F00100F8
:10319000704730D24FEAD42C11F5001124F40064AA
:1031A0001BD0B1FA81F20B3AA41AA41ED2F120036B
:1031B000914030FA03F31943904001EBCC71002C9D
:1031C00001EB0451BDE81040A8BF704701F1C041B8
:1031D0004FF0000001F000417047B0FA80F310FAA0
:1031E00003F100D110BDE41A173C4805C90AE4E711
:1031F00001EB045110BD491001EB0451BDE8104032
:103200004FEA300002E04FF0000170474A0008BF6B
:103210000042F8D0B2F5001F28BF704701F000410E
:103220004FF0000070479EEA445F07D011EA5E0F3E
:10323000BDE8104004BF002100207047BDE81040E9
:1032400070B5FFF789FE00BF40DFF63E83F0004116
:10325000104670470000E0FF4FF04070E1EE100AAA
:103260007047000000000000000001020304060790
:103270000809000000000102030400009C3200085D
:10328000000000202C000000C4010008C832000823
:103290002C000020FC070000E001000800000000F6
:1032A000000000000000000000000000000000001E
:1032B00000000000000000000100000010000000FD
:0832C000000000000024F400EE
:040000050800018965
:00000001FF
