:020000040800F2
:100000008008002029020008031C0008CB17000804
:10001000011C00080B050008E51F00080000000097
:10002000000000000000000000000000B71D0008F4
:100030000D05000800000000B51D0008B91D0008EE
:10004000430200084302000843020008430200087C
:10005000430200084302000843020008430200086C
:10006000430200084302000843020008430200085C
:10007000430200084302000843020008430200084C
:10008000430200084302000843020008430200083C
:10009000430200084302000843020008430200082C
:1000A000430200084302000843020008430200081C
:1000B000430200084302000843020008430200080C
:1000C00043020008430200084302000843020008FC
:1000D00043020008430200084302000843020008EC
:1000E00043020008430200084302000843020008DC
:1000F00043020008430200084302000843020008CC
:1001000043020008430200084302000843020008BB
:1001100043020008430200084302000843020008AB
:10012000430200084302000843020008430200089B
:10013000430200084302000843020008430200088B
:10014000430200084302000843020008430200087B
:10015000430200084302000843020008430200086B
:10016000430200084302000843020008430200085B
:100170004302000843020008430200080000000098
:10018000430200084302000800F002F800F03CF8C7
:100190000AA090E8000C82448344AAF10107DA45E2
:1001A00001D100F031F8AFF2090EBAE80F0013F0F8
:1001B000010F18BFFB1A43F001031847F02E00008F
:1001C000102F0000103A24BF78C878C1FAD852071F
:1001D00024BF30C830C144BF04680C6070470000C1
:1001E0000023002400250026103A28BF78C1FBD840
:1001F000520728BF30C148BF0B6070471FB502F0DF
:100200003EFF1FBD10B510BD00F046F91146FFF7C7
:10021000F5FF02F089F900F064F903B4FFF7F2FF8B
:1002200003BC00F06BF9000009488047094800470B
:10023000FEE7FEE7FEE7FEE7FEE7FEE7FEE7FEE796
:10024000FEE7FEE704480549054A064B70470000F3
:10025000511E00088901000880020020800800204B
:10026000800400208004002053EA020C00F0698022
:100270002DE9F04B4FF00006002B1FBFB3FA83F5BA
:1002800003FA05F424FA05F65E4012BF1643B2FAEB
:1002900082F502FA05F4C5F120051EBF22FA05FC1D
:1002A00044EA0C04203556EA044C4FEA144418BFC3
:1002B000641C4FF000084FF00009904271EB030CF2
:1002C00039D3002919BFB1FA81F701FA07F6B0FA5C
:1002D00080F700FA07F6C7F120071EBF20FA07FCD7
:1002E00046EA0C062037B6FBF4FCA7EB0507103FE7
:1002F00007F01F0BCBF120060CFA0BFB2CFA06F6CD
:1003000044BFB3460026202FA4BF5E464FF0000B2B
:100310005BEA060C08BF4FF0010B19EB0B09ABFBB6
:10032000027C48EB0608C01B06FB02CC0BFB03CC8F
:1003300071EB0C01C1E70B46024641464846BDE859
:10034000F08B13B54FF000004FF00001AFF30080C9
:10035000BDE81C407047032A40F2308010F0030CC7
:1003600000F0158011F8013BBCF1020F624498BF08
:1003700011F801CB00F8013B38BF11F8013BA2F1A5
:10038000040298BF00F801CB38BF00F8013B11F020
:10039000030300F04F80083AC0F0088051F8043B96
:1003A000083A51F804CBA0E80810F5E7121D5CBF2D
:1003B00051F8043B40F8043BAFF30080D20724BF60
:1003C00011F8013B11F801CB48BF11F8012B24BFF4
:1003D00000F8013B00F801CB48BF00F8012B704743
:1003E0004FF0000200B5134694469646203922BFCE
:1003F000A0E80C50A0E80C50B1F12001BFF4F7AF19
:10040000090728BFA0E80C5048BF0CC05DF804EBFA
:10041000890028BF40F8042B08BF704748BF20F868
:10042000022B11F0804F18BF00F8012B7047704766
:100430007047704710B5203AC0F00B80B1E81850F3
:10044000203AA0E81850B1E81850A0E81850BFF4BE
:10045000F5AF5FEA027C24BFB1E81850A0E818505D
:1004600044BF18C918C0BDE810405FEA827C24BFB1
:1004700051F8043B40F8043B08BF7047D20728BF3F
:1004800031F8023B48BF11F8012B28BF20F8023B8E
:1004900048BF00F8012B7047754600F02BF8AE46B8
:1004A00005006946534620F00700854618B020B580
:1004B000FFF7C8FEBDE820404FF000064FF00007F0
:1004C0004FF000084FF0000B21F00701AC46ACE8FC
:1004D000C009ACE8C009ACE8C009ACE8C0098D4669
:1004E000704710B50446AFF300802046BDE81040C9
:1004F000FFF793BE004870472002002001491820F2
:10050000ABBEFEE7260002007047FEE77047000022
:1005100070B5044600F014F90546601C02D004488A
:100520000078044400F00CF9401BA042FAD370BDDF
:10053000140000202DE9F84FDFF8BCA100220125AE
:1005400003264FF00F090AF1040BAAF1040E00BFB5
:100550000B6805FA02F42340A34270D10F7907F02B
:100560000307012F01D0022F16D187684FEA4208F6
:1005700006FA08FC27EA0C07D1F80CC00CFA08FCB4
:100580004CEA070CC0F808C04768A7430C79C4F3CD
:10059000001494403C4344600C79E443A4070AD01F
:1005A000C4684FEA420C06FA0CF7BC438F6807FA9E
:1005B0000CF72743C7600C7904F00304022C12D116
:1005C000D40800EB840CDCF820405707FF0E09FA32
:1005D00007F824EA0804D1F8108008FA07F848EA76
:1005E0000408CCF8208004684FEA420C06FA0CF7A5
:1005F000BC430F7907F0030707FA0CF7274307609E
:100600004C6814F4403F70D03C4C276847F4804756
:100610002760246822F0030704F480440094384CD7
:1006200007EB040CDCF8084897074FEA177809FA3B
:1006300008F7BC43334FB84202D1002724E054E00E
:10064000314FB84201D101271EE0304FB84201D1ED
:10065000022719E02E4FB84201D1032714E02D4F95
:10066000B84201D104270FE02B4FB84201D1052732
:100670000AE02A4FB84201D1062705E0284FB842C8
:1006800001D1072700E0082707FA08F72743CCF82D
:100690000878DAF800405746D1F804C09C435FEA76
:1006A000CC2C00D51C433C60DBF800405F46D1F801
:1006B00004C09C435FEA8C2C00D51C433C60DEF8F0
:1006C00000407746D1F804C09C435FEA8C3C00D5DB
:1006D0001C433C60084F083F3C68D1F804C09C4371
:1006E0005FEACC3C00D51C433C60521C102AFFF44E
:1006F0002FAFBDE8F88F0000083C014044380240AD
:1007000000300140000002400004024000080240A6
:10071000000C024000100240001402400018024089
:10072000001C0240426921EA02030A4043EA0241F6
:10073000816170470AB1816170470904FBE70000DD
:1007400001488068704700001400002090F83C10B9
:10075000012912D0012100F83C1F2421417050F8DA
:100760003C1CCA6822F00C0242F00402CA6020213C
:10077000417000210170084670470220704790F8D0
:100780003C10012912D0012100F83C1F24214170A6
:1007900050F83C1CCA6822F00C0242F00802CA6001
:1007A00020214170002101700846704702207047E7
:1007B00070B5040004D094F83D00002510B106E0A7
:1007C000012070BD84F83C50204600F0F7FE242044
:1007D00084F83D002068C16821F40051C1602046C2
:1007E00001F03EFB2068016921F49041016120681D
:1007F000416921F0220141612068416941F008010D
:1008000041612068C16841F40051C1602564202025
:1008100084F83D0084F83E00002070BD70B50400EF
:1008200025D094F83D00002520B984F83C5020469E
:1008300000F0F4FA242084F83D002068016821F0DB
:10084000010101602068016841F4004101602068F5
:10085000016821F40041016000F094FC4D4A616898
:10086000914201D84C4900E04C49884201D2012014
:1008700070BD4B492368B0FBF1F15E6826F03F067E
:100880000E435E606368934206D94FF496735943F2
:100890004FF47A73B1FBF3F12368491C1E6A26F00A
:1008A0003F06314319626168914210D84900401EE9
:1008B000B0FBF1F2521CC2F30B02042A01D2042055
:1008C00022E0B0FBF1F0401CC0F30B001CE0A2687A
:1008D000F2B301EBC10303EB0116431EB3FBF6F3C6
:1008E0005B1C43F480431B0549D092B301EBC1026A
:1008F00002EB0111401EB0FBF1F0401CC0F30B00F5
:1009000040F4804040F400402168CA694CF6FF730F
:100910009A431043C861D4E9071001432068026874
:1009200022F0C00211430160D4E9030101432068B1
:10093000826848F2FF339A4311438160D4E905018C
:1009400008432168CA6822F0FF021043C86001E032
:100950000EE016E02068016841F0010101602564A5
:10096000202084F83D00256384F83E50002070BDAF
:1009700001EB4106431EB3FBF6F35B1CB3E701201A
:10098000C2E701EB4101401EB0FBF1F0401CC0F397
:100990000B00B7E7A086010080841E0000093D001F
:1009A00040420F002DE9FF4F81B089460446FFF712
:1009B000C7FE054694F83D004FF0000820287DD181
:1009C0001923012250492046009501F001F8002822
:1009D00074D194F83C00012870D0012084F83C00C8
:1009E00020680168C90703D1016841F00101016075
:1009F0002068016821F400610160242084F83D0032
:100A0000002626644148E0624FF0011B2027206841
:100A1000016841F48071016000950022594620462A
:100A2000049B00F0D5FF50B120680068C00502D5D6
:100A30004FF400702064032005B0BDE8F08F2168FA
:100A400009F0FE000861FFF77BFE21680546486952
:100A50004969C0F34000C1F380214FF0A00A0FE0C4
:100A6000FFF76EFE411B0498814200D808B984F854
:100A70003DA0216848694969C0F34000C1F3802165
:100A800094F83D20A02A02D008B90029E8D084F8C3
:100A90003D7020684169C943890716D4016841F453
:100AA000007101602068416980691923012216499B
:100AB0002046009500F08CFFB8B900E021E084F8F2
:100AC0003D7084F83C600020B6E7016841F4007195
:100AD000016021686FF480604861192301220A498E
:100AE0002046009500F074FF08B10120A4E70398A8
:100AF00008F1010880458AD384F83D7084F83C6091
:100B0000F3E7022098E70000020010000000FFFF5A
:100B10002DE9F84F1F4690468A460446DDF8289096
:100B2000FFF70EFE054694F83D00202875D11923E5
:100B300001226C492046009500F04AFF0028F5D1BB
:100B400094F83C00012868D0012084F83C0020681B
:100B50000168C90703D1016841F001010160206803
:100B6000016821F400610160222084F83D0010201A
:100B700084F83E0000262664C4F824806785608DD2
:100B800020855948E0622B464A465146204600F0EF
:100B900035FE002878D1208D544F68B1012814D03B
:100BA00002282068016816D041F480610160206845
:100BB00041698069009087E02068416981690091FE
:100BC000016841F4007101607EE02068016821F451
:100BD00080610160F0E721F48061016020680168B4
:100BE00041F40061E2E7032848D801280AD002282E
:100BF00014D04B46002239462046009500F0E8FE0E
:100C0000D8BB27E02A464946204600F060FFA0BB3B
:100C100020680069616A08704DE061E04B4600227F
:100C200039462046009500F0D3FE30BB20680168AD
:100C300041F40071016020680069616A0870606AAF
:100C4000401C6062218D491E2185618D491E618590
:100C500021682EE02068016821F48061016020682D
:100C60000069616A0870606A401C6062208D401EE5
:100C70002085608D401E6085D0E705E02A46494604
:100C8000204600F024FF10B10120BDE8F88F206855
:100C90000069616A0870606A401C6062218D491EAB
:100CA0002185618D491E618521684A69D2435207B9
:100CB0000AD409690170606A401C6062208D401E80
:100CC0002085608D401E6085208D00288BD12020DE
:100CD00084F83D0084F83E6084F83C600020D4E74E
:100CE0000220D2E7020010000000FFFF0400010014
:100CF0002DE9F84F1F4690468A460446DDF82890B5
:100D0000FFF71EFD054694F83D0020287FD11923EA
:100D1000012240492046009500F05AFE002876D175
:100D200094F83C00012872D0012084F83C0020682F
:100D30000168C90703D1016841F001010160206821
:100D4000016821F400610160212084F83D00102039
:100D500084F83E0000262664C4F824806785608DF0
:100D600020852D48E0622B464A465146204600F039
:100D7000BBFD90B9206841698069009036E02A4641
:100D80004946204600F0D6FE50B1206C042804D11C
:100D90002068016841F4007101600120BDE8F88F0E
:100DA000606A216800780861606A401C6062618D39
:100DB000491E6185218D491E89B2218522685369AA
:100DC000DB435B070BD451B100781061606A401CB3
:100DD0006062608D401E6085208D401E20852A4601
:100DE0004946204600F0CEFD0028CED1208D0028B7
:100DF000C5D154F83D0B016841F400710160202019
:100E000004F81E09E67766770020C7E7FFE70220AF
:100E1000C4E70000020010000000FFFF2DE9F041D0
:100E200086B0044614216846FFF7DAFA22683C4C83
:100E3000DFF8E8C000233A49122503260427394881
:100E40001034624518D10A6842F002020A6009684B
:100E500002AA01F002010591C021CDE9001582E846
:100E6000C8006946FFF766FB206840F40010206068
:100E7000206800F400101CE0DFF8ACC062451CD113
:100E80000A6842F002020A60096802AA01F002013F
:100E900005914FF44061CDE9001582E8C80069462C
:100EA000FFF748FB206840F480002060206800F4D1
:100EB0008000059006B0BDE8F0811C488242F9D15F
:100EC000086840F004000860086800F0040005901D
:100ED000086840F00100086008684FF0010800F061
:100EE0000100059050158DE8210169461048CDE9B3
:100EF0000367FFF71FFB4FF480708DE821016946FF
:100F00000C48CDE90367FFF715FB206840F40000AB
:100F10002060206800F40000CBE70000005400408F
:100F2000303802400004024000580040005C00409D
:100F30000008024000000240024881680278114423
:100F400081607047140000200B4810B5016841F41F
:100F500000710160016841F480610160016841F441
:100F600080710160032000F061F80F2000F006F8A6
:100F700000F024F8002010BD003C024070B50D4D7B
:100F800004464FF47A712878B1FBF0F00A490968F9
:100F9000B1FBF0F000F0FEFA48B9102C07D20022A5
:100FA0002146501E00F022F800206C6070BD012028
:100FB00070BD000014000020200000200A4808B581
:100FC000016841F480410160006800F480400090B5
:100FD0000548001F016841F080510160006800F081
:100FE0008050009008BD000044380240F0B40E4B21
:100FF0001B680C46C3F30223C3F10705042D00D977
:101000000425191D072901D2002300E0DB1E01265B
:1010100006FA05F1491E214099409E40761E164071
:101020003143F0BC00F0DFBF0CED00E0064900F0FA
:10103000070208684FF6FF03184040EA0220034AFF
:1010400010430860704700000CED00E00000FA0556
:101050002DE9F0470E46050065D0DFF81481D8F879
:101060000000F7B200F00700B04207D288F8007025
:10107000D8F8000000F00700B04254D128683D4C79
:10108000810712D5400703D5206840F4E050206066
:101090002878000703D5206840F46040206020686D
:1010A000A96820F0F000084320602878C0072DD000
:1010B000304968680839012812D0022813D0032863
:1010C00011D00968890700292DDA216821F0030170
:1010D00001432160FFF734FB814641F2883A0EE07C
:1010E00009688903EFE709688901ECE7FFF728FB46
:1010F000A0EB0901514502D90320BDE8F087206823
:10110000696800F00C00B0EB810FEFD1D8F8001047
:10111000404601F00701B14207D90770006800F0AE
:101120000700B04201D00120E7E72878400705D545
:101130002068E96820F4E050084320602878000720
:1011400006D52068296920F4604040EAC10020608B
:1011500000F038F82168084AC1F30311515CC84017
:101160000649086006480068FFF708FF0020C4E74A
:10117000003C024008380240923000082000002065
:10118000180000200448054900680968044AC1F3B2
:101190008221515CC840704720000020083802407E
:1011A000A23000080448054900680968044AC1F3F0
:1011B0004231515CC840704720000020083802408E
:1011C000A2300008154810B5006810F00C02144851
:1011D00013D01449042A0FD0082A0ED10F4C241F13
:1011E0002268236802F03F025B0207D52068C0F343
:1011F0008810A0FB010106E0084610BD2168C1F37C
:101200008811A1FB00010023FFF72EF82168C1F32C
:101210000141491C4900B0FBF1F010BD0838024003
:101220000024F40040787D012DE9F84F04006ED0D1
:101230002078DFF84C93C007A9F104054AD009F1E2
:1012400004000168C1F38101012908D00068C0F3DE
:10125000810002280AD1D9F80000400206D528688A
:10126000800337D560680028E1D033E06068B0F5CE
:10127000803F10D0B0F5A02F286810D020F4803027
:101280002860286820F4802028606068A8B1FFF7F3
:1012900057FA06460DE0286840F48030F4E740F441
:1012A00080202860F7E700BFFFF74AFA801B642818
:1012B00073D828688003F7D50CE0FFF741FA06469B
:1012C00005E000BFFFF73CFA801B6428F0D82868CF
:1012D0008003F7D42078DFF8AC8280074FF0000A53
:1012E0003ED5A748001D016811F00C0F08D000681A
:1012F000C0F3810002280BD1D9F80000400207D4C6
:101300002868800716D5E068012800D112E033E193
:10131000E068B8B10120C8F80000FFF711FA0646EE
:1013200005E000BFFFF70CFA801B0228C0D8286830
:101330008007F7D52868216920F0F80040EAC1004D
:1013400028600DE0C8F800A0FFF7FAF9064604E0AF
:10135000FFF7F6F9801B02281FD828688007F7D40A
:101360002078000722D5864F87486169703771B1B0
:1013700001210160FFF7E4F9064604E0FFF7E0F918
:10138000801B022809D838688007F7D50EE0C0F81E
:1013900000A0FFF7D5F9064605E082E0FFF7D0F997
:1013A000801B02287DD838688007F7D42078400752
:1013B00068D5DFF8CCB100270BF13C0BDBF800005F
:1013C000C0000BD4DBF8001041F08051CBF80010C6
:1013D000DBF80000012700F0805000906B4E306871
:1013E000C00510D4306840F480703060FFF7A8F971
:1013F000009005E0FFF7A4F90099401A022850D8A0
:101400003068C005F6D55E4EA0686C3601280FD056
:101410000528306810D020F001003060306820F0DE
:1014200004003060A068B8B1FFF78AF900900FE0BF
:10143000306840F00100F4E740F004003060F7E766
:10144000FFF77EF90099411A41F28830814266D84F
:1014500030688007F4D50EE0FFF772F9009007E0DE
:10146000FFF76EF90099411A41F28830814256D84F
:1014700030688007F4D42FB1DBF8001021F08051E0
:10148000CBF80010A069C8B33D49091D0968C1F334
:10149000810102294AD00228504607D0C8F86000CE
:1014A00000E03CE0FFF74CF904463BE04746C8F853
:1014B0006000FFF745F9064605E000BFFFF740F979
:1014C000801B02282BD828688001F7D4D4E90701B3
:1014D0000843A16A2E4A490802EB0141626A41EAC7
:1014E0008211084394F82C1040EA0161C9F80010F9
:1014F00001203866FFF724F9044606E03EE000BF0D
:10150000FFF71EF9001B022809D828688001F7D5CB
:1015100034E000BFFFF714F9001B022802D90320B2
:10152000BDE8F88F28688001F4D427E00128F7D0BF
:10153000D9F80000E26900F4800191421CD1226ACE
:1015400000F03F01914217D147F6C071626A014035
:10155000B1EB821F10D1A26A4FF0FF3300F440318B
:1015600003EB5202B1EB024F06D194F82C1000F0BD
:101570007060B0EB016F01D00120D1E70020CFE710
:101580000438024000004742800E4742007000408D
:101590000000FFFF10B5401EB0F1807F01D3012095
:1015A00010BD4FF0E02460610F21601700F01BFDBB
:1015B0000020A06107202061002010BDF0B587B099
:1015C000044614216846FEF70BFF20491E4F26688B
:1015D00000251E4A1039122303241D48BE4214D18F
:1015E000166846F400261660126802F4002205927E
:1015F0000A6842F001020A60096801F001010591E0
:1016000001218DE82A00082116E0124FBE4218D1B0
:10161000166846F400361660126802F4003205922D
:101620000A6842F001020A60096801F001010591AF
:1016300004218DE82A000721CDE903416946FEF720
:1016400079FF07B0F0BD0000004C00404038024078
:1016500000000240004400402DE9F84F044690F895
:101660003E009A4616460D46202853D1FDB1F6B1EC
:1016700094F83C0001284DD0012084F83C0000275C
:101680002764222084F83E002763FFF759F8A685D7
:101690008146E685A0684FF48058404501D1206915
:1016A00040B12E465FF0000584F83C7027E0012031
:1016B000BDE8F88F0026F7E74B46002220212046A0
:1016C000CDF800A000F052FC08B10320F0E726B1ED
:1016D000A06840451BD038B108E020684068C0F3DE
:1016E000080025F8020B07E0206980B120684068F7
:1016F00000F07F0006F8010BE08D401EE085E08DD4
:101700000028D9D1202084F83E000020D0E72068AE
:101710004068EFE70220CBE72DE9F843044690F854
:101720003D001F4616460D4620284CD1C5B1BEB11E
:1017300094F83C00012846D0012084F83C004FF08A
:101740000008C4F84080212084F83D00FEF7F8FF2F
:10175000A6848146E684A068B0F5805F03D004E0EB
:101760000120BDE8F883206928B12E465FF000050E
:1017700084F83C800EE00026FAE78021204600F045
:10178000F5FBA0B9AEB116F8010B21684860E08CFA
:10179000401EE084E08C4B464FF00002009700288A
:1017A000EBD14FF04001204600F0E0FB30B10320C8
:1017B000D7E735F8020BC0F30800E6E7202084F8ED
:1017C0003D000020CDE70220CBE7FEE701684A6933
:1017D000D24352050FD46FF480624A61002140F871
:1017E000301F202242738173026942F004020261B9
:1017F0000173012070470020704700002DE9F84F69
:101800000446C06A1E4693460D4621680A6842F4A3
:1018100080620A60082807D0012805D010F5803FB3
:1018200002D0206B112804D12068016841F4807136
:1018300001604FF001195B460022494620460096A0
:1018400000F0C6F84FF4007840B120680068C00589
:1018500001D5C4F840800320BDE8F88F2069DFF887
:1018600084A0B0F5804F0FD00620216800EAD5177C
:1018700047F0F000086133465A460AF10601204657
:1018800000F0DAF858BB03E0E8B240F001001CE0D9
:101890002168E8B2086133465A465146204600F0B6
:1018A000CBF8E0B92068416981690091016841F491
:1018B000807101605B46002249462046009600F098
:1018C00087F80028C1D147F0F1002168086133464C
:1018D0005A465146204600F0AFF80028BCD00120FF
:1018E000BAE7000002000100F8B50446C06A1E46CF
:1018F0000D461746082807D0012805D010F5803F6F
:1019000002D0206B122804D12068016841F4807154
:101910000160134600224FF001112046009600F0AE
:1019200057F840B120680068C00502D54FF4007038
:1019300020640320F8BD2069B0F5804F0ED006204A
:10194000216800EAD51040F0F000086133463A46BD
:101950000B49204600F070F878B902E005F0FE006F
:1019600000E0E8B221680861054933463A46891F1C
:10197000204600F061F80028DCD00120F8BD00000E
:101980000800010070B516460D4604460DE02046DD
:10199000FFF71CFF08B1012070BD681C05D0FEF7E1
:1019A000CFFE801BA84207D835B120684069C043EC
:1019B0004007ECD4002070BD002044F8300F2021F7
:1019C0006173A073216941F0200121612073E2E776
:1019D0002DE9F0471E4690460D460446C1F30747E1
:1019E000DDF8209008E0701C06D0FEF7A9FEA0EB01
:1019F0000900B0420FD876B12068012F18D0806955
:101A000025EA00000004000C14D000214145EAD072
:101A10000020BDE8F087002044F8300F20216173DA
:101A2000A073216941F02001216120730120F0E7BA
:101A30004069E5E70121E9E72DE9F0479A4691463B
:101A40000E46044600254FF02008C1F3074725E065
:101A500020684069C043400514D42068016841F4FF
:101A60000071016021686FF480604861256384F82B
:101A70003D8084F83E50206C40F00400206484F8DF
:101A80003C501FE0B9F1FF3F08D0FEF759FEA0EB34
:101A90000A0149450CD8B9F1000F09D02068012F7F
:101AA00013D0806926EA00000004000C0BD0CFE7B9
:101AB00044F8305F84F80D80A573206940F0200061
:101AC000206125730120BDE8F0874069EAE72DE930
:101AD000F041002590460E460446202717E0406955
:101AE000C043C0060CD454F8301B6FF0100048619E
:101AF00044F810596777A577206A2062257717E0A8
:101B0000FEF71EFEA0EB0800B04208D83EB12068E8
:101B10004169C9434906E2D40020BDE8F08144F898
:101B2000305F6773A573206940F020002061257342
:101B30000120F2E770B516460D4604460DE020463A
:101B4000FFF744FE08B1012070BD681C05D0FEF708
:101B5000F7FD801BA84207D835B120684069C04313
:101B60000006ECD4002070BD002044F8300F202186
:101B70006173A073216941F0200121612073E2E7C4
:101B800070B586B014216846FEF72AFC1A48002476
:101B9000016841F080010160016801F08001059158
:101BA000016841F001010160016801F00101059146
:101BB000016841F002010160016801F00201059134
:101BC000016841F00401016000680C4E00F004005F
:101BD0004FF400750590002229463046FEF7AAFD15
:101BE00001200095CDE90104694630460394FEF7D3
:101BF000A1FC06B070BD0000303802400004024075
:101C0000FEE7FEE79FED060A80ED090A80ED0A0A6D
:101C100080ED0B0A80ED0C0A80ED0D0A7047000084
:101C20000000000070B504462DED0C8BF0EE608ACC
:101C300030EE688A90ED000A20EE08DA90ED0A0A8C
:101C400030EE080A10EE100A01F0A8F9256A41ECFE
:101C5000190B284601F0A2F941EC1A0B606801F05B
:101C60009DF99FED501B53EC112B00F0AFFF53EC8F
:101C70001A2B00F0ABFF53EC192B00F0A7FF41EC3F
:101C8000190B606A01F08AF953EC192B00F09EFDE4
:101C900000F06AFD00EE100A84ED090AD4ED070A8F
:101CA000B4EEE00AF1EE10FA06DCD4ED060AB4EE6A
:101CB000E00AF1EE10FA01D2C4ED090A284601F05B
:101CC0006DF9E66841EC190B304601F067F99FEDBC
:101CD00037AB53EC1A2B00F079FF53EC192B00F0C3
:101CE00075FD94ED0C0A41EC1B0B38EEC00A10EEAA
:101CF000100A01F053F941EC190BA06801F04EF9FC
:101D000053EC1A2B00F062FF53EC192B00F05EFF2E
:101D100041EC190BE06A01F041F941EC1C0B304633
:101D200001F03CF953EC1A2B00F050FF41EC1A0B78
:101D3000284601F033F953EC1A2B01F045F853EC27
:101D40001C2B00F043FF53EC192B01F03DF853EC32
:101D50001B2B00F0E3FD00F007FD00EE100A84ED00
:101D60000B0AD4ED090A70EE8D0A30EE800A84ED7C
:101D70000D0AD4ED050AB4EEE00AF1EE10FA06DC25
:101D8000D4ED040AB4EEE00AF1EE10FA01D2C4ED8B
:101D90000D0A84ED0A8AC4ED0C8A94ED0D0ABDEC9F
:101DA0000C8B70BD000000000000E03F0000000050
:101DB0000000004070477047FFF7BEB830B593B0E1
:101DC00030216846FEF70CFB14210CA8FEF708FB37
:101DD0001D480025016841F080510160006800F055
:101DE000805011901948016841F4804101600068F9
:101DF000022400F4804011900120039010200490F0
:101E0000009406940820CDE90750A820CDE90904E4
:101E100004200B906846FFF707FA08B172B6FEE798
:101E20000CA90F2081E831004FF4A0500F904FF41F
:101E30008050109005210CA8FFF70AF9002801D066
:101E400072B6FEE713B030BD40380240007000406B
:101E50000248016841F470010160704788ED00E0BC
:101E600070B5044600680169E26821F440511143ED
:101E700001612169A068E26908436169114308436F
:101E80002168CA6849F20C639A430243CA60206819
:101E90004169A26921F440711143416131492068CF
:101EA000884202D03049884202D1FFF77BF901E035
:101EB000FFF768F9E2690023192164253226B2F59B
:101EC000004F626828D0A0FB0101930F9200FEF73B
:101ED000CBF90146B0FBF5F06FF01802504301EB6F
:101EE000800006EB0010B0FBF5F000F0F002B1FB53
:101EF000F5F002EB0012B1FBF5F06FF01803584358
:101F000001EB800006EB0010B0FBF5F000F00F00D5
:101F100021681044886070BDA0FB010192185B41EC
:101F2000FEF7A2F90146B0FBF5F00201B1FBF5F0B6
:101F30006FF01803584301EB800006EBC000B0FBC4
:101F4000F5F000F0F80002EB4002B1FBF5F0584369
:101F500001EB800006EBC000B0FBF5F000F00700DD
:101F6000D6E7000000100140001401402DE9F041C7
:101F7000984617460E460446069D27E0681C25D065
:101F80002DB1FEF7DDFBA0EB0800A8421ED92068AA
:101F90000C3050E8001F21F4D07140E80012002AF4
:101FA000F5D12068143050E8001F21F0010140E80D
:101FB0000012002AF5D1202084F83D0084F83E006C
:101FC000002084F83C000320BDE8F0812068006810
:101FD00036EA000004D00020B842CFD00020F3E75A
:101FE0000120F9E7FEE70907090E002804DB00F1EC
:101FF000E02080F80014704700F00F0000F1E020AE
:1020000080F8141D704710B50023022203E0845CA1
:10201000521C2344DBB28A42F9DBD843C0B210BD64
:1020200010B50446012100F085F90021204600F09A
:1020300019F940F2FF31204600F0E2F82046BDE8F1
:10204000104040F20B2100F0A9B80000024B1860CC
:1020500081F82320704700000800002070B5054675
:1020600000F03CF80446284600F004F844EA00205A
:1020700070BD00007CB515A10546D1E90001CDE990
:10208000000195F823008DF80200082168460F35FD
:10209000FFF7B9FF0F4C8DF807002068FEF76FFBC4
:1020A0000A23082269462068FFF736FB2068FEF7FE
:1020B0004DFB0A23082208492068FFF7CDFA06489D
:1020C000016829604168696040797CBDFFFF0004B8
:1020D0000225010008000020240000207CB515A185
:1020E0000546D1E90001CDE9000195F823008DF8FE
:1020F0000200082168460F35FFF785FF0F4C8DF869
:1021000007002068FEF73BFB0A2308226946206887
:10211000FFF702FB2068FEF719FB0A230822084993
:102120002068FFF799FA06480168296041686960EC
:1021300040797CBDFFFF000402240100080000205C
:10214000240000202DE9F0410D461F46904606462A
:10215000012100F0EFF80021304600F083F840F252
:10216000FF342146304600F04BF83A464FF4FA71FE
:10217000304600F0A9F82946304600F00FF84FF439
:102180007A70FEF7C5F93A464146304600F09CF8B1
:1021900021463046BDE8F041AFF300803EB513A4C0
:1021A0001CCC8DE81C0090F823008DF802008DF8FF
:1021B0000610080A8DF8070009216846FFF723FF7B
:1021C0000D4C8DF808002068FEF7D9FA0A23092281
:1021D00069462068FFF7A0FA2068FEF7B7FA0A23DD
:1021E000062206492068FFF737FA3EBDFFFF0005CB
:1021F000031E000000000000080000202400002052
:102200003EB513A41CCC8DE81C0090F823008DF87B
:1022100002008DF80610080A8DF8070009216846AB
:10222000FFF7F1FE0D4C8DF808002068FEF7A7FAC5
:102230000A23092269462068FFF76EFA2068FEF734
:1022400085FA0A23062206492068FFF705FA3EBDF3
:10225000FFFF000503080000000000000800002048
:10226000240000203EB513A41CCC8DE81C0090F87F
:1022700023008DF802008DF80610080A8DF807007B
:1022800009216846FFF7BFFE0D4C8DF80800206855
:10229000FEF775FA0A23092269462068FFF73CFA1F
:1022A0002068FEF753FA0A23062206492068FFF742
:1022B000D3F93EBDFFFF000503060000000000004B
:1022C00008000020240000203EB50B0A012A01D19D
:1022D00043F0040312A534CD8DE8340090F82300B8
:1022E0008DF806108DF802008DF807300921684638
:1022F000FFF789FE0D4C8DF808002068FEF73FFAC5
:102300000A23092269462068FFF706FA2068FEF7CB
:102310001DFA0A23062206492068FFF79DF93EBDF3
:10232000FFFF00050320000000000000080000205F
:10233000240000203EB512A41CCC8DE81C0090F8AF
:1023400023008DF802008DF8061009216846FFF77A
:102350005AFE0E4C8DF808002068FEF710FA0A238A
:10236000092269462068FFF7D7F92068FEF7EEF9E1
:102370000A23062206492068FFF76EF93EBD0000D9
:10238000FFFF000503180001000000000800002006
:102390002400002070B58AB014A10646D1E90001DE
:1023A0006425144C0095CDE90101062301AA21788A
:1023B0006068FEF79DFC0095102303AA21786068F1
:1023C000FEF7A6FBBDF81100ADF81C00BDF8130028
:1023D000ADF81E00BDF81500ADF82000079830607C
:1023E000BDF82000B0800AB070BD000055AA1100F1
:1023F000203000000000002070B594B022A10646F5
:10240000D1E900016425224C0095CDE901010623A4
:1024100001AA21786068FEF76BFC0095322307AAB9
:1024200021786068FEF774FB9DF8200029280BD105
:10243000BDF82100ADF80C00BDF82300ADF80E008A
:10244000BDF82500ADF810009DF830002A2813D102
:10245000BDF83100ADF81200BDF83300ADF814003E
:10246000BDF83500ADF81600BDF83700ADF818001E
:10247000BDF83900ADF81A00102203A93046FDF767
:102480006AFF14B070BD000055AA11002131000090
:102490000000002030B5044685B03220FEF738F841
:1024A0001E4D6C600024A1B20A2301226868FEF769
:1024B00079FA00B92C70641CFF2CF4DB18A1642499
:1024C000D1E900010094CDE90301062303AA29788C
:1024D0006868FEF70DFC0094062301AA2978686855
:1024E000FEF716FB9DF80400552812D19DF8050053
:1024F000AA280ED19DF8060011280AD19DF80700E0
:1025000038B99DF808002E2803D19DF809003E280F
:1025100002D0032005B030BD0020FBE70000002002
:1025200055AA11002C3C00002DED048B84B0FEF761
:102530000BFDFFF743FCFFF723FB7C487A497C4DFA
:1025400000240160C0E901540E14C0E9034644614F
:102550008461C4610462FEF761F908B172B6FEE7F6
:102560007248744954300160C0E90154C0E903461F
:1025700044618461C4610462FEF750F908B172B627
:10258000FEE76E486C496E4F0160C0E901744FF080
:102590000C08C460C0E904488461C461FEF708F90E
:1025A00008B172B6FEE76548664998380160C0E92F
:1025B0000154C0E9034644618461C4610462FEF7CA
:1025C0002DF908B172B6FEE75C485F4944380160F6
:1025D000C0E90174C460C0E904488461C461FEF7C5
:1025E000E7F808B172B6FEE7544CB7EE000A78344B
:1025F00084ED000ADFED558AC4ED018A84ED020AFC
:102600009FED530A84ED030AB3EE0E0A84ED050A2A
:10261000BBEE0E0A84ED040AB1EE040A84ED070A4B
:10262000B9EE040A84ED060ADFED4A9A2046C4EDAD
:10263000089AFFF7E7FA9FED489AA4F5B270FFF702
:1026400029FF20B94FF480514448FEF76BF86846E3
:10265000FFF7A0FE424D00983849C5F80200BDF8CA
:102660000400E88054311122A1F19800FFF7EEFC3C
:1026700032485430FFF7D4FC304801236422002153
:102680005430FFF75FFD2D4EDFF8D88044366846A2
:10269000FFF7B2FE2948102269464430FDF75BFE81
:1026A000F0890128F3D125485430FFF7D7FC288062
:1026B000B0EE688A4746F08800EE100A1F48F8EE30
:1026C000400AB0EE490A7830FFF7ACFA94ED0D0AF3
:1026D000B5EEC00AF1EE10FA01DB012205E0B5EE1D
:1026E000C00AF1EE10FA17D20022144832215430F9
:1026F000FFF7EAFD2888D4ED0D0A00EE100AB8EEC7
:10270000400A30EE800ABCEEC00A10EE100A81B218
:102710000A485430FFF742FD38EE298A18EE100AB5
:10272000B842C8DDB3E7000000540040300000208C
:10273000A0860100005800400044004070010020C5
:1027400040420F00005C0040004C004000000000D0
:102750000AD7A33C0AD7233C00002043000C0240C8
:102760000C0000200000A04021F00042A2F16052C5
:10277000B2F5801F01F0004328BFD2F17F6C0BD966
:102780005FEA001C43EAC20242EB507018BF704778
:1027900028BF20F001007047B2F5801FBCBF18466B
:1027A00070474FEA410C1CF5001F02D2084600F0AA
:1027B0006BBC70B500F0B4FA00000089FFF7F6BFFB
:1027C0004FF00040A0F580007047000010B591EA7E
:1027D000030F48BF83F0004300F1FE82841A71EBBF
:1027E000030C05D2121943EB0C03001B61EB0C0127
:1027F000DFF824E14FEA1154A4EB135C1EEA430F07
:1028000018BF9EEA445F73D023EA0E03DCF1200E6A
:1028100021EA045143F4801332D322FA0CFE10EB68
:102820000E0023FA0CFE41EB0E01CCF1200E03FA50
:102830000EFE10EB0E0051F10001B1F5801FCCF13E
:10284000200E32D201EB045112FA0EF2BDE8104014
:1028500058BF7047401C38BF5FEA420218BF70473C
:10286000002814BF20F0010041F100014FEA4103AC
:1028700013F5001F38BF7047A1F1C04100F09EBAA8
:10288000012A43EB0302ACF1200CDCF11F0E32BF36
:102890004FF0000E23FA0CF310EB030041EB045150
:1028A000B4EB115FD0D0A1EB045101F580114908C0
:1028B0005FEA300001EB04510ED350F1000038BF45
:1028C00012FA0EFE08D1BDE81040C9E7401C38BF1F
:1028D0005FEA4202CAD1C3E7BDE810404FEA4103B4
:1028E00013F5001F38BF7047A1F1C04100F066BA70
:1028F0009EEA445F08D011EA5E0FBDE8104004BFB5
:1029000001F0004100207047BDE8104070B500F0B4
:1029100007FA00BF64FBBE3E0000E0FF2DE9C041A6
:1029200030B4DFF8A0C23CEA111418BF3CEA13141B
:1029300000F0EC8081EA03051CEA111444EAD57426
:1029400018BF1CEA131500F0C780A4EB05044FF074
:10295000004545EAC12145EAC32341EA505143EA13
:10296000525304F17F74994204F500344FEAC020B9
:102970004FEAC22208BF904200F09C804FEA1365E4
:102980000FF24016765D4FEA134506FB05F7C7F1D7
:10299000807706FB07F74FEAD737A7FB0368764235
:1029A000C8F58038A7FB06CE38BFA8F1010807FBA1
:1029B00008E64FF0000EA6FB028CE6FB03CEDCF12E
:1029C000000CCEF1004E38BFAEF1010EA6FB0C5844
:1029D0004FF000074FF00005E6FB0E87A1FB08C68D
:1029E000A0FB07CE16EB0E0645F10005E1FB0765DF
:1029F00015F1E04E7EBFA4F580345FEA46066D41D6
:102A000016F1800745F100054FEA17274FEA0666E1
:102A100047EA0567A6F1DE46B6F1805F4FEA152565
:102A20001FD9384624F0010C05EBC471BCF1FE6FD0
:102A300001EB0C1102D8F0BCBDE8008124425CBF60
:102A400001F5801E9EEAC47F02D4F0BCBDE800817F
:102A5000244238D4F0BCA1F1C041BDE8004100F0EF
:102A6000ADB94FEAD22242EA43524FEAD323A7FB41
:102A700002864FEAD02040EA415007FB03661EEA77
:102A80000E0F4FEAD12105FB026658BFA6EB005698
:102A9000B6EB00564FEA520E4EEAC37E18EB0E0E0E
:102AA00056EB530EBDD518EB02085E417F1C55F165
:102AB0000005B6E74FF480154FF000074FF0000611
:102AC0004FF00008ADE7F0BC4FF0000001F1C0414D
:102AD00001F00041BDE8008111EA0C1F0CEA13155A
:102AE00000D00CE013EA0C1F00F025804FF000002E
:102AF000F0BC81EA030101F00041BDE80081F0BCB7
:102B0000BDE8004181EA030100F058B9F0BCBDE81E
:102B1000004170B500F004F9097EFC3E00F007B8F2
:102B200081EA03014FF0000001F00041704781EAA3
:102B3000030100F043B9F0BCBDE800414FF00000D4
:102B400021497047FFFDFBF9F7F5F4F2F0EEEDEBEC
:102B5000E9E8E6E4E3E1E0DEDDDBDAD8D7D5D4D39B
:102B6000D1D0CFCDCCCBCAC8C7C6C5C4C2C1C0BFE7
:102B7000BEBDBCBBBAB9B8B7B6B5B4B3B2B1B0AFED
:102B8000AEADACABAAA9A8A8A7A6A5A4A3A3A2A1D1
:102B9000A09F9F9E9D9C9C9B9A999998979796958C
:102BA00095949393929191908F8F8E8E8D8C8C8B28
:102BB0008B8A8989888887878685858484838382B0
:102BC000828181800000FF070000F87FDFF848C1A4
:102BD00070B51CEA111E1EBF1CEA13159EEA0C0FED
:102BE00095EA0C0F00F06F8081EA030423EA4C138E
:102BF0004EEAD47E21EA4C1141F4801143F4801353
:102C0000AE44A1FB024CA0FB0365AEF17F7E3619FA
:102C100055EB0C05A1FB034C4CF10003A0FB021C7F
:102C200016EB0C06654153F10003094218BF46F04C
:102C3000010613F4007F0BD14FEA03314FEA053050
:102C4000340341EA155140EA16506FF003020AE0DE
:102C50004FEAC3214FEAC520F40241EA555140EA48
:102C600056506FF0020202EB2E4201EB025585EA4C
:102C7000CE710AD05FEA440C18BF24F0004450F132
:102C8000000041F1000120EAD47040F2FE7C624570
:102C900000D270BDA84214BF4FF080444FF04044B2
:102CA000002E08BF0024BEF1806FA8BFA1F1C04173
:102CB000BDE8704080F282804FF0000001F1C04119
:102CC00001F0004170479EEA0C0F0CEA131518BF83
:102CD00095EA0C0F06D04FF0000081EA030E0EF0CB
:102CE000004170BD00F01CF88900013E00F007B8FB
:102CF00000F009B84FEA430C5FEA5C5C08D081EA57
:102D0000030100F05BB84FEA410C5FEA5C5CF6D16E
:102D10004FF00000014970470000FF070000F87FF6
:102D20000EF1020E2EF0030E5EF8046B364205D44F
:102D3000012A43EB030515F5001F12D8012841EBCA
:102D4000010C1CF5001F0CD80ED14FEAD17C15F5F3
:102D5000001F0CEB4C0C0CF1020C08BF4CEBD37CAD
:102D600004E04FF0080C01E04FEAD37C0CEB4C057B
:102D700026FA05F606F00706B6F1040C06D20EEBAD
:102D8000860CBDE870404CF0010C6047DFE80CF0A9
:102D9000090B02024FF000414FF00000A1F50021A5
:102DA00070BD19461046012851EB010418BFD4F537
:102DB000001484BF002001F0004170BD0808A0F598
:102DC00000114FEA3101704710B591EA030F48BF77
:102DD00083F000433FF502AD841A71EB030C07D278
:102DE00012198CF0004C43EB0C03001B61EB0C013F
:102DF000DFF8A4E14FEA1154A4EB135C1EEA430F81
:102E000018BF9EEA445F00F0B08023EA6E0352428E
:102E100021EA0451C3EB6E0338BF5B1EDCF1200EC8
:102E200025D322FA0CFE10EB0E0043FA0CFE41EB08
:102E30000E01CCF1200E03FA0EFE10EB0E0051F144
:102E40000001CCF1200E29D412FA0EF201EB04514C
:102E5000BDE8104058BF7047401C1CBFB2F1004F86
:102E6000704700280CBF491C20F00100704712EB8E
:102E7000020E43EB030218BF4FF0010E4EEA42026E
:102E8000ACF1200CDCF11E0E54D943FA0CFE10EB11
:102E90000E0051F1FF31CCF11E0ED5D50EF1010E11
:102EA00012FA0EFE404141EB010101EB445C5FEA86
:102EB0005C5C10D910EBDE7001EB045138BFBEF141
:102EC000004FBDE8104018BF704700280CBF491CD8
:102ED00020F00100704730D24FEAD42C11F50011D8
:102EE00024F400641BD0B1FA81F20B3AA41AA41E98
:102EF000D2F12003914030FA03F31943904001EBE3
:102F0000CC71002C01EB0451BDE81040A8BF704704
:102F100001F1C0414FF0000001F000417047B0FAEC
:102F200080F310FA03F100D110BDE41A173C4805F4
:102F3000C90AE4E701EB045110BD491001EB04514B
:102F4000BDE810404FEA300002E04FF0000170474A
:102F50004A0008BF0042F8D0B2F5001F28BF7047F2
:102F600001F000414FF0000070479EEA445F07D037
:102F700011EA5E0FBDE8104004BF00210020704739
:102F8000BDE8104070B5FFF7CBFE00BF40DFF63E56
:102F900083F00041104670470000E0FF43004FEA15
:102FA000D30C4FEA3C0C43401FBF40070CF160516B
:102FB00013F0FE4F70471CF0006F03D100200CF09F
:102FC000004170470CF0004343EA507010B540EAEE
:102FD000CC0000F00EF800BF000000924FEA0001A4
:102FE000FFF7ECBE4FF000414FF00000A1F50021CB
:102FF00070470EF1020E2EF0030E5EF8044B2442D1
:1030000004D44FEA4102B2F17F4F11D84FEA400396
:10301000B3F17F4F0CD80ED14FEAD07CB2F17F4F85
:103020000CEB4C0C0CF1020C08BF4CEBD17C04E017
:103030004FF0080C01E04FEAD17C0CEB4C0324FA72
:1030400003F404F00704B4F1040C06D20EEB840C74
:10305000BDE810404CF0010C6047DFE80CF00708B9
:1030600002024FF00040A0F5800010BD084642006B
:1030700018BFD2F1807288BF00F0004010BD4FF041
:103080004070E1EE100A7047FF2141EAD050C005C0
:103090007047000000000000000001020304060762
:1030A000080900000000010203040000CC30000801
:1030B0000000002024000000C4010008F0300008D7
:1030C000240000205C080000E0010008000000006F
:1030D00000000000000000000000000000000000F0
:1030E0000100000010000000000000000024F400B7
:040000050800018965
:00000001FF
